S01A0000476363417070315F41746D656761333238502E7372656310
S11300000C943E000C9487010C945B000C945B00F0
S11300100C945B000C945B000C945B000C945B00F0
S11300200C945B000C945B000C945B000C945B00E0
S11300300C945B000C945B000C945B000C945B00D0
S11300400C9409050C945B000C94220B0C945B003B
S11300500C945B000C94EA010C945B000C945B0020
S11300600C945B000C945B0046055A0548054A0550
S11300704C054E05500552055405560511241FBE66
S1130080CFEFD8E0DEBFCDBF13E0A0E0B1E0EEE2F9
S1130090FDE102C005900D92A23FB107D9F724E01B
S11300A0A2EFB3E001C01D92A532B207E1F70E94AE
S11300B01C020C94950E0C94000084B1816084B9E8
S11300C08AB1806E8AB90895019721F485B181605F
S11300D085B9089585B18E7F85B9089581E090E052
S11300E00E946400089580E090E00E9464000895F6
S11300F0019721F48BB180688BB908958BB18F7708
S11301008BB9089581E090E00E947800089580E022
S113011090E00E94780008958BB1881F8827881F7B
S113012090E008950E948C00019719F40E948700C2
S113013008950E9482000895019721F48BB1806490
S11301408BB908958BB18F7B8BB9089581E090E0D2
S11301500E949C00089580E090E00E949C00089515
S11301608BB1881F8827881F90E008950E94B000F3
S1130170019719F40E94AB0008950E94A600089507
S1130180019721F48BB180628BB908958BB18F7D77
S11301908BB9089581E090E00E94C00008950E9408
S11301A06E000E9482000E94A6000E94CA00089568
S11301B080E090E00E94C00008950F931F93CF93B6
S11301C0DF93CDB7DEB7CC54D1090FB6F894DEBFB8
S11301D00FBECDBF60E1CE01CD960E940E039EAD51
S11301E08DAD1F929F931F928F9380E091E09F9318
S11301F08F938E010F5F1F4F1F930F930E94AB0BC2
S1130200C8010E94FC0826966FAD269725965FAD1F
S1130210259724964FAD249723963FAD2397229696
S11302202FAD229721969FAD21978FAD1F926F938B
S11302301F925F931F924F931F923F931F922F938E
S11302401F929F931F928F9387E291E09F938F93C6
S11302501F930F930E94AB0BC8010E94FC082A96BF
S11302603FAD2A9729962FAD299728969FAD2897B9
S113027027968FAD27971F923F931F922F931F921C
S11302809F931F928F9381E691E09F938F931F9387
S11302900F930E94AB0B0FB6F894DEBF0FBECDBF19
S11302A0C8010E94FC082D962FAD2D972C969FAD6A
S11302B02C972B968FAD2B971F922F931F929F9362
S11302C01F928F9387E891E09F938F931F930F93CF
S11302D00E94AB0BC8010E94FC080FB6F894DEBF65
S11302E00FBECDBFC45BDF4F0FB6F894DEBF0FBEA9
S11302F0CDBFDF91CF911F910F910895E9E6F0E012
S11303008081836080838DB381608DBB08951F924B
S11303100F920FB60F9211242F933F934F935F9335
S11303206F937F938F939F93AF93BF93EF93FF93B9
S11303300E9492002091F2033091F3034091F40360
S11303405091F5036091F6037091F7038091F803DF
S11303500E9424072093F2033093F3034093F403A1
S11303605093F5036093F6037093F7038093F803B7
S11303700E9418060E940A06883328F40E94CA00C4
S11303800E94610504C00E94D8000E946505209166
S1130390F2033091F3034091F4035091F50360911B
S11303A0F6037091F7038091F8030E9473050E948D
S11303B0F505FF91EF91BF91AF919F918F917F913F
S11303C06F915F914F913F912F910F900FBE0F90BE
S11303D01F9018951F920F920FB60F9211242F930E
S11303E03F934F935F936F937F938F939F93AF93B9
S11303F0BF93EF93FF93EAE7F0E08081806180830D
S11304000E94FB05FF91EF91BF91AF919F918F9156
S11304107F916F915F914F913F912F910F900FBEFC
S11304200F901F90189514B88FEF85B917B89EEFE9
S113043098B91AB88BB90895CF93DF93CDB7DEB7C7
S1130440E2970FB6F894DEBF0FBECDBF0E94130231
S11304500E945D000E94CF000E94E70881EB91E0BA
S11304600E94FC080E9468050E9401050E94DD02AA
S11304700E94D804813041F48BEC91E00E94FC0886
S11304800E94E3040E94E5020E9451032093F203B8
S11304903093F3034093F4035093F5036093F6030E
S11304A07093F7038093F8030E9473050E94E30599
S11304B08FE097E20197F1F700C000000E947E01EF
S11304C078940F2EF2E3EF2EF02D8E010F5F1F4F65
S11304D02091F2033091F3034091F4035091F5031A
S11304E06091F6037091F7038091F8030E948706E8
S11304F087EF91E00E94FC08C8010E94FC088FEA83
S113050093E00E94FC080E94DD0088E693E00E94CC
S1130510FC080E946E009FEF24E38CE09150204081
S11305208040E1F700C000000E9473009FEF24E3C5
S11305308CE0915020408040E1F700C00000E9CFFA
S1130540CF93DF9300D0CDB7DEB769834A8320E031
S113055042E0BE016F5F7F4F81E50E945C080F900F
S11305600F90DF91CF910895CF93DF9300D0CDB753
S1130570DEB7498321E041E0BE016F5F7F4F81E533
S11305800E945C0880E090E0181619064CF0E2E046
S1130590F0E0EC0FFD1FE80FF91F10820196F4CF75
S11305A041E0BE016E5F7F4F81E50E9491088A8120
S11305B00F900F90DF91CF91089560E082E00E9448
S11305C03B088BB18B7F8BB9089540E060E082EAF1
S11305D00E94A00240E061E082EA0E94A00243E897
S11305E06DE082EA0E94A00240E06EE082EA0E948E
S11305F0A00240E069E082EA0E94A00240E06AE0D2
S113060082EA0E94A00240E06BE082EA0E94A0021B
S113061040E06CE082EA0E94A0020895EF92FF920B
S11306200F931F93CF93DF936031A0F18C01C0E04F
S1130630D0E0C031D10564F47801EC0EFD1E4C2FDE
S113064063EA82EA0E94B402F70180832196F1CF23
S1130650F80181818F7B818383818F778383848178
S11306608F73848385818F73858386818870868365
S113067087818F79878382858F7B828783858F7B30
S1130680838784858778848785858378858786852D
S113069083788687DF91CF911F910F91FF90EF9020
S11306A00895DF92EF92FF920F931F93CF93DF93FE
S11306B0CDB7DEB72E970FB6F894DEBF0FBECDBF11
S11306C042E063EA82EA0E94B402D82E43E063EA7D
S11306D082EA0E94B402E82E44E063EA82EA0E94BD
S11306E0B402F82E45E063EA82EA0E94B402082FBD
S11306F047E063EA82EA0E94B402182F48E063EA02
S113070082EA0E94B4024D2D407750E055954795FA
S1130710559547955595479555954795440F942F6D
S1130720990F990F490F9D2D9F70490F4E872E2DBC
S1130730207730E03595279535952795359527957C
S113074035952795220F922F990F990F290F9E2DDA
S11307509F70290F2D876F2D607370E075956795D5
S1130760759567957595679575956795660F962F39
S1130770990F990F690F9F2D9F70690F6C87402FF8
S1130780407350E055954795559547955595479530
S113079055954795440F942F990F990F490F0F7052
S11307A0400F4B87212F207130E0359527953595E3
S11307B027953595279535952795220F922F990FD3
S11307C0990F290F1F70210F2A87282F22952F7028
S11307D030E0A901440F551F220F331F220F331F8E
S11307E0220F331F240F351F8F70280F311D205304
S11307F0384F3987288787E0FE013896DE01119645
S113080001900D928A95E1F729813A814B815C81AF
S11308106D817E818F8190E02E960FB6F894DEBFB5
S11308200FBECDBFDF91CF911F910F91FF90EF903D
S1130830DF9008951F93CF93DF93CDB7DEB727974B
S11308400FB6F894DEBF0FBECDBF29833A834B8326
S11308505C836D837E831DEC819F912D112496957D
S11308609695969520E1929FA0011124990F292F26
S1130870220F220F920F891B8F70482B62E082EAAD
S11308800E94A0029E81919F812D112486958695B8
S1130890869520E1829FA0011124880F282F220F22
S11308A0220F820F981B9F70492B4F7763E082EAD7
S11308B00E94A0029D81919F812D11248695869589
S11308C0869520E1829FA0011124880F282F220FF2
S11308D0220F820F981B9F70492B4F7364E082EAAA
S11308E00E94A0029C81919F812D1124869586955A
S11308F0869520E1829FA0011124880F282F220FC2
S1130900220F820F981B9F70492B4F7365E082EA78
S11309100E94A0029B81919F812D1124869586952A
S1130920869520E1829FA0011124880F282F220F91
S1130930220F820F981B9F70492B4F7967E082EA40
S11309400E94A00249815A819A01369527953695CD
S11309502795ABE7B4E10E94620B9695879564E610
S1130960689F9001699F300D1124CA01821B930B6B
S1130970819F112D112416951695169520E1129F2D
S1130980A0011124110F912F990F990F190F811B99
S11309908F70482B68E082EA0E94A00227960FB667
S11309A0F894DEBF0FBECDBFDF91CF911F910895A4
S11309B042E063EA82EA0E94B402882314F481E0EC
S11309C0089580E0089542E063EA82EA0E94B40256
S11309D09DEC899F912D112496959695969520E1ED
S11309E0929FA0011124990F292F220F220F920FF9
S11309F0891B8F70482B4F7762E082EA0E94A00225
S1130A00089514BC85E085BD16BC81E080936E001A
S1130A1008951F920F920FB60F9211242F933F93B4
S1130A204F935F936F937F938F939F93AF93BF93F2
S1130A30EF93FF930E94B600FF91EF91BF91AF91A6
S1130A409F918F917F916F915F914F913F912F91E2
S1130A500F900FBE0F901F90189585B1826085B9D5
S1130A60089585B18D7F85B9089585B1846085B970
S1130A70089585B18B7F85B9089590E08A309105FA
S1130A80B8F4FC01EC5CFF4F0C945C0B8FE308950D
S1130A908BE508958FE4089586E608958DE608951C
S1130AA08DE7089587E208958FE708958FE6089506
S1130AB080E0089586E008958EBD0DB407FEFDCF55
S1130AC0089581E08093F90308951092F90308953D
S1130AD084B18E6284B985B18E6285B981E58CBD9D
S1130AE01092F90308950F931F93CF93DF93CDB71B
S1130AF0DEB727970FB6F894DEBF0FBECDBF6D8368
S1130B007E838F830E9435050E9431058D811DEC03
S1130B10819F012D1124069506950695202F220FFD
S1130B20922F990F990F920F891B0E943D05880FF0
S1130B300E945C05802F0E943D050E945C058E8109
S1130B40819F012D1124069506950695202F220FCD
S1130B50922F990F990F920F891B0E943D05880FC0
S1130B600E945C05802F0E943D050E945C058F81D8
S1130B70819F112D1124169516951695212F220F5C
S1130B80922F990F990F920F891B0E943D05880F90
S1130B900E945C05812F0E943D050E945C050E9415
S1130BA02D050E9431058091F90381110E943905B8
S1130BB027960FB6F894DEBF0FBECDBFDF91CF915D
S1130BC01F910F91089587B18E7F87B988B18E7F69
S1130BD088B98EE880937A0080E480937C00EEE705
S1130BE0F0E08081816080830895EAE7F0E080810D
S1130BF080648083089520917800809179008370C7
S1130C0090E0982F8827820F911D9093FB03809387
S1130C10FA03089524EF31E0AC01429FC001439FE1
S1130C20900D529F900D1124892F869586950895D5
S1130C308091FA039091FB0308950F931F93CF9330
S1130C40DF93CDB7DEB76C970FB6F894DEBF0FBE57
S1130C50CDBF8C01F80180818F878181888B82814F
S1130C60898B83818A8BCE010F960E94850B99878D
S1130C708887F80185818B8B86818C8BCE01439686
S1130C800E94850B8A87F80180858D8B81858E8BE8
S1130C90CE0145960E94850B8B87F80183858F8B47
S1130CA08485888FCE0147960E94850B8C87F80136
S1130CB08685898F87858A8FCE0149960E94850B08
S1130CC08D87F80181898B8F82898C8FCE014B9619
S1130CD00E94850B8E8787E0FE013896DE0111960F
S1130CE001900D928A95E1F729813A814B815C81CB
S1130CF06D817E818F8190E06C960FB6F894DEBF93
S1130D000FBECDBFDF91CF911F910F910895EF9248
S1130D100F931F93CF93DF93CDB7DEB727970FB60B
S1130D20F894DEBF0FBECDBF29833A834B835C8327
S1130D306D837E838F8382E18E15F8F46F814D81FC
S1130D403C812B8189819A811F926F931F927F939B
S1130D501F924F931F923F931F922F939F938F93B2
S1130D6083E192E09F938F931F930F930E94AB0BA9
S1130D700FB6F894DEBF0FBECDBF27960FB6F8941A
S1130D80DEBF0FBECDBFDF91CF911F910F91EF90CA
S1130D900895CF93DF93CDB7DEB727970FB6F894B6
S1130DA0DEBF0FBECDBF29833A838F8389819A81A9
S1130DB08C5697408D34944068F44D3068F450322A
S1130DC068F4693168F47C3368F48F818C3360F0A3
S1130DD080E00BC080E009C080E007C080E005C06F
S1130DE080E003C080E001C081E027960FB6F8944C
S1130DF0DEBF0FBECDBFDF91CF910895282F90E0C5
S1130E0060E971E00E94480B892BD1F089E2289FA8
S1130E10812D112482958F70922F34E6839F90192F
S1130E201124892F992379F08BEA289F812D11248D
S1130E308695982F990F890F281304C081E008958F
S1130E4081E0089580E008950F931F93CF93DF937B
S1130E50CDB7DEB765970FB6F894DEBF0FBECDBF32
S1130E602F87388B498B5A8B6B8B7C8B8D8B87E0D0
S1130E70FE013F96DE01189601900D928A95E1F7E6
S1130E808E858F5F8E878C3309F058C01E868D85C2
S1130E908F5F8D878C3309F051C01D868C858F5FE1
S1130EA08C87883109F04AC01C860B850F5F0B873D
S1130EB01A85143031F0163021F0193011F01B303E
S1130EC011F40E3119F1113061F0133051F0153075
S1130ED041F0173031F0183021F01A3011F01C3085
S1130EE011F40F31A9F0123039F488850E94FE06FE
S1130EF0813011F40D3171F0123071F488850E9443
S1130F00FE0681110BC00C3159F00BC081E009C001
S1130F1081E007C081E005C080E003C080E001C03B
S1130F2081E0882359F01B861F5F1A871C3031F437
S1130F301A868885998501969987888787E0FE01B6
S1130F403896DE01119601900D928A95E1F7298178
S1130F503A814B815C816D817E818F8190E06596C1
S1130F600FB6F894DEBF0FBECDBFDF91CF911F91B6
S1130F700F91089584EA8093BC008091BC0088237B
S1130F80E4F78091B900887F883039F08091B90006
S1130F90887F803121F480E003C080E001C081E0DB
S1130FA0882329F08091B900887F90E0089580E03B
S1130FB090E0089584E98093BC0008958093BB0079
S1130FC084E88093BC008091BC008823E4F780917E
S1130FD0B900887F883139F08091B900887F8034E6
S1130FE021F480E003C080E001C081E0882329F07F
S1130FF08091B900887F90E0089580E090E00895A2
S11310008093BB0084E88093BC008091BC0088235B
S1131010E4F78091B900887F883229F08091B90083
S1131020887F90E0089580E090E00895882381F01F
S113103084EC8093BC008091BC008823E4F7809109
S1131040B900887F8035A1F08091B900887F089528
S113105084E88093BC008091BC008823E4F78091ED
S1131060B900887F883521F08091B900887F089580
S11310708091BB00089597B1906397B9662321F0DE
S113108098B1906398B903C098B19F7C98B997B10F
S11310909F7C97B9813041F018F0823049F008956F
S11310A088E48093B800089588E18093B800089597
S11310B082E08093B8000895EF92FF920F931F93FC
S11310C0CF93DF93C82F7B01142F022F0E94BA07FE
S11310D0009701F58C2F880F0E94DE070097D1F44A
S11310E0C0E0D0E0812F90E0C817D90754F4F7018D
S11310F0EC0FFD1F80810E940008009759F421968F
S1131100F1CF011105C00E94DA0780E090E002C02F
S113111080E090E0DF91CF911F910F91FF90EF90CD
S11311200895CF92DF92FF920F931F93CF93DF9393
S1131130C82F8B01F42E0E94BA079C01009749F531
S11311408C2F90E0880F991F81600E94DE07009722
S113115009F5C0E0D0E08F2D90E00197C817D907BA
S113116054F46801CC0EDD1E81E00E941608F601DD
S113117080832196F0CFCF2DD0E02197C00FD11FCF
S113118080E00E94160888830E94DA0780E090E0DD
S113119001C0932FDF91CF911F910F91FF90DF90AA
S11311A0CF90089590910304E92FF0E0EB5FFB4F9B
S11311B080839F5F9093030408951092030480E258
S11311C0E5E0F4E0DF011D928A95E9F708951092B5
S11311D0C00086E08093C2008CE08093C40010922B
S11311E0C50088E98093C10008959091C00095FFDF
S11311F0FCCF8093C6000895CF93DF93EC018881E0
S1131200882321F021960E94F508F9CFDF91CF9130
S113121008950F931F93CF93DF93CDB7DEB7CC54CC
S1131220D1090FB6F894DEBF0FBECDBF60E1CE0189
S1131230CD960E940E039EAD8DAD1F929F931F927B
S11312408F9380E091E09F938F938E010F5F1F4FE8
S11312501F930F930E94AB0BC8010E94FC082696B3
S11312606FAD269725965FAD259724964FAD2497AD
S113127023963FAD239722962FAD229721969FADBB
S113128021978FAD1F926F931F925F931F924F937D
S11312901F923F931F922F931F929F931F928F939E
S11312A087E291E09F938F931F930F930E94AB0B60
S11312B0C8010E94FC082A963FAD2A9729962FADB3
S11312C0299728969FAD289727968FAD27971F9229
S11312D03F931F922F931F929F931F928F9381E6A8
S11312E091E09F938F931F930F930E94AB0B0FB6C4
S11312F0F894DEBF0FBECDBFC8010E94FC082D9636
S11313002FAD2D972C969FAD2C972B968FAD2B97A9
S11313101F922F931F929F931F928F9387E891E0C0
S11313209F938F931F930F930E94AB0BC8010E944E
S1131330FC080FB6F894DEBF0FBECDBFC45BDF4F11
S11313400FB6F894DEBF0FBECDBFDF91CF911F91D2
S11313500F910895CF92DF92EF920F931F93CF9343
S1131360DF93CDB7DEB76E970FB6F894DEBF0FBE2E
S1131370CDBF182F0E94F50880910404813009F034
S1131380AFC01237E9F58FEA93E00E94FC080E948F
S113139051032093F2033093F3034093F4035093E7
S11313A0F5036093F6037093F7038093F80387EFD4
S11313B091E00E94FC08CE0101966C018EE1F601D9
S11313C011928A95E9F70F2EFEE1EF2EF02D86019A
S11313D02091F2033091F3034091F4035091F5030B
S11313E06091F6037091F7038091F8030E948706D9
S11313F0C6010E94FC0888E693E00E94FC0814C120
S1131400123559F48FEA93E00E94FC080E940909FE
S113141088E693E00E94FC0807C11836E9F48FEAD5
S113142093E00E94FC0881E392E00E94FC0888E3B8
S113143092E00E94FC0880E692E00E94FC0887E8A3
S113144092E00E94FC0880EB92E00E94FC088FEC82
S113145092E00E94FC08E8C0143769F58FEA93E033
S11314600E94FC088DED92E00E94FC08CE010196DA
S11314706C018EE1F60111928A95E9F70F2EFEE1D7
S1131480EF2EF02D86012091F2033091F303409169
S1131490F4035091F5036091F6037091F703809182
S11314A0F8030E948706C6010E94FC0888E693E0C0
S11314B00E94FC08B9C0173709F0B6C083EF92E068
S11314C00E94FC0887EF92E00E94FC0881E193E00F
S11314D00E94FC0882E0809304040E94DD08A4C0FA
S11314E0823009F061C01A3011F0111159C0E09135
S11314F00304F0E0EB5FFB4F108285E094E00E9470
S1131500FC0885E094E00E941D062093FC033093C0
S1131510FD034093FE035093FF0360930004709314
S1131520010480930204FE0131966F019EE1119241
S11315309A95E9F70F2EFEE1EF2EF02D86010E9419
S1131540870680E493E00E94FC08C6010E94FC0820
S11315508FEA93E00E94FC082091FC033091FD0384
S11315604091FE035091FF036091000470910104C7
S1131570809102040E94C906882341F084E593E027
S11315800E94FC0884E08093040407C08CE693E086
S11315900E94FC0881E0809304040E94DD0844C09A
S11315A0812F0E94D20840C08430C9F5193511F04A
S11315B0193711F58DE993E00E94FC082091FC0392
S11315C03091FD034091FE035091FF0360910004AC
S11315D070910104809102040E941A0482EB93E04A
S11315E00E94FC0887E0ECEFF3E0A2EFB3E0019087
S11315F00D928A95E1F70DC01E3411F01E3629F4C0
S11316008BEB93E00E94FC0804C081ED93E00E9400
S1131610FC0881E0809304040E94DD0805C081E099
S1131620809304040E94DD086E960FB6F894DEBF22
S11316300FBECDBFDF91CF911F910F91EF90DF903F
S1131640CF9008951F920F920FB60F9211242F93EB
S11316503F934F935F936F937F938F939F93AF9336
S1131660BF93EF93FF938091C6000E94AA09FF9154
S1131670EF91BF91AF919F918F917F916F915F9106
S11316804F913F912F910F900FBE0F901F9018957F
S113169097FB072E16F4009407D077FD09D00E941B
S11316A0710B07FC05D03EF4909581959F4F0895EA
S11316B0709561957F4F0895EE0FFF1F0590F4918B
S11316C0E02D0994A29FB001B39FC001A39F700DA8
S11316D0811D1124911DB29F700D811D1124911D36
S11316E00895AA1BBB1B51E107C0AA1FBB1FA61765
S11316F0B70710F0A61BB70B881F991F5A95A9F7B7
S113170080959095BC01CD010895FC018827992707
S1131710E89421912032E9F3293010F02E30C8F3F7
S11317202B3241F02D3239F4689404C00E94A30B8B
S1131730820F911D219120532A30C0F31EF49095FD
S113174081959F4F08957AE0979F902D879F802DD4
S1131750910D11240895AEE0B0E0E1EBFBE00C94B0
S11317606C0E0D891E8986E08C831A8309838FEFA2
S11317709FE79E838D83AE01475E5F4F6F89788DAF
S1131780CE0101960E94CD0BEF81F885E00FF11F89
S113179010822E96E4E00C94880EABE0B0E0E3ED0A
S11317A0FBE00C945E0E6C017B018A01FC01178244
S11317B01682838181FFCCC1CE0101963C01F601E2
S11317C09381F70193FD859193FF81917F01882394
S11317D009F4BAC1853239F493FD859193FF81915F
S11317E07F01853229F4B60190E00E94C40DE7CF51
S11317F0912C212C312CFFE1F315D8F08B3279F0A8
S113180038F4803279F08332A1F4232D20611DC095
S11318108D3261F0803369F4232D216016C0832D4D
S11318208260382EE32DE4603E2E2AC0F32DF8604A
S11318301DC037FC2DC020ED280F2A3040F08E3219
S1131840B9F436FC81C1232D2064322E19C036FE32
S113185006C08AE0989E200D1124922E11C0EAE061
S11318602E9E200D1124222EF32DF0623F2E08C04F
S11318708C3621F4832D8068382E02C0883641F4DA
S1131880F70193FD859193FF81917F018111B3CF7E
S1131890982F9F7D9554933028F40C5F1F4F9FE33E
S11318A099830DC0833631F0833771F0833509F0A5
S11318B059C021C0F801808189830E5F1F4F88249D
S11318C08394912C530113C02801F2E04F0E511C54
S11318D0F801A080B18036FE03C0692D70E002C01B
S11318E06FEF7FEFC5010E94B90D4C018201F32D0A
S11318F0FF773F2E16C0280122E0420E511CF8014A
S1131900A080B18036FE03C0692D70E002C06FEF85
S11319107FEFC5010E94AE0D4C01F32DF0683F2E00
S1131920820133FC1BC0822D90E088169906B0F426
S1131930B60180E290E00E94C40D2A94F4CFF50130
S113194037FC859137FE81915F01B60190E00E94DA
S1131950C40D21102A9421E0821A91088114910463
S113196071F7E8C0843611F0893641F5F80137FE85
S113197007C060817181828193810C5F1F4F08C011
S113198060817181072E000C880B990B0E5F1F4F2D
S1131990F32DFF763F2E97FF09C0909580957095A3
S11319A061957F4F8F4F9F4FF0683F2E2AE030E0C4
S11319B0A3010E94000E882E861845C0853731F495
S11319C0232D2F7EB22E2AE030E025C0932D997F5F
S11319D0B92E8F36C1F018F4883579F0B5C0803748
S11319E019F0883721F0B0C0E92FE061BE2EB4FEB3
S11319F00DC0FB2DF460BF2E09C034FE0AC0292F90
S1131A002660B22E06C028E030E005C020E130E0B8
S1131A1002C020E132E0F801B7FE07C060817181A5
S1131A20828193810C5F1F4F06C06081718180E0C9
S1131A3090E00E5F1F4FA3010E94000E882E8618AF
S1131A40FB2DFF773F2E36FE0DC0232D2E7FA22EB9
S1131A50891458F434FE0BC032FC09C0832D8E7EE9
S1131A60A82E05C0B82CA32C03C0B82C01C0B92CD7
S1131A70A4FE0FC0FE01E80DF11D8081803321F426
S1131A809A2D997EA92E09C0A2FE06C0B394B394E0
S1131A9004C08A2D867809F0B394A3FC11C0A0FE7B
S1131AA006C0B21488F4280C922C9B180EC0B214F1
S1131AB060F4B60180E290E00E94C40DB394F7CFC5
S1131AC0B21418F42B1802C0982C212CA4FE10C0B8
S1131AD0B60180E390E00E94C40DA2FE17C0A1FCF1
S1131AE003C088E790E002C088E590E0B6010CC02E
S1131AF08A2D867859F0A1FE02C08BE201C080E2F3
S1131B00A7FC8DE2B60190E00E94C40D891438F45C
S1131B10B60180E390E00E94C40D9A94F7CF8A94B2
S1131B20F301E80DF11D8081B60190E00E94C40D1F
S1131B308110F5CF222009F442CEB60180E290E074
S1131B400E94C40D2A94F6CFF6018681978102C0C3
S1131B508FEF9FEF2B96E2E10C947A0EFC01059037
S1131B60615070400110D8F7809590958E0F9F1F9B
S1131B700895FC016150704001900110D8F78095E0
S1131B8090958E0F9F1F08950F931F93CF93DF930C
S1131B90FB01238121FD03C08FEF9FEF2CC022FFA7
S1131BA016C046815781248135814217530744F476
S1131BB0A081B1819D012F5F3F4F318320838C939E
S1131BC0268137812F5F3F4F3783268314C08B01D3
S1131BD0EC01FB010084F185E02D0995892BE1F6E8
S1131BE0D80116968D919C911797019617969C9300
S1131BF08E931697CE01DF91CF911F910F91089587
S1131C00FA01AA27283051F1203181F1E8946F9329
S1131C106E7F6E5F7F4F8F4F9F4FAF4FB1E03ED0CF
S1131C20B4E03CD0670F781F891F9A1FA11D680F6D
S1131C30791F8A1F911DA11D6A0F711D811D911DA0
S1131C40A11D20D009F468943F912AE0269F112415
S1131C503019305D3193DEF6CF010895462F477079
S1131C60405D4193B3E00FD0C9F7F6CF462F4F70D4
S1131C70405D4A3318F0495D31FD4052419302D032
S1131C80A9F7EACFB4E0A6959795879577956795D8
S1131C90BA95C9F700976105710508959B01AC01D8
S1131CA00A2E06945795479537952795BA95C9F7FF
S1131CB0620F731F841F951FA01D08952F923F92DA
S1131CC04F925F926F927F928F929F92AF92BF9248
S1131CD0CF92DF92EF92FF920F931F93CF93DF93F4
S1131CE0CDB7DEB7CA1BDB0B0FB6F894DEBF0FBE51
S1131CF0CDBF09942A88398848885F846E847D849E
S1131D008C849B84AA84B984C884DF80EE80FD809F
S1131D100C811B81AA81B981CE0FD11D0FB6F89415
S1111D20DEBF0FBECDBFED010895F894FFCFD6
S1131D2E5B44656275675D20525443207265677328
S1131D3E203A20436F6E74726F6C202530327820F7
S1131D4E253032780D0A005B44656275675D205359
S1131D5E6563202D2059656172203A202530327832
S1131D6E20253032782025303278202530327820E4
S1131D7E25303278202530327820253032780D0AFD
S1131D8E005B44656275675D20416C61726D203A3B
S1131D9E20253032782025303278202530327820B4
S1131DAE253032780D0A005B44656275675D204309
S1131DBE4C4B4F555420262054696D6572203A20A1
S1131DCE25303278202530327820253032780D0AAD
S1131DDE0041546D6567613332385020436C6F6334
S1131DEE6B20626F6F7465640D0A005B496E666FDB
S1131DFE5D2052544320564C20626974203D3D2090
S1131E0E312C2074696D65206D61792062652077AF
S1131E1E726F6E670D0A0054696D65207265636F8B
S1131E2E76657265642066726F6D20525443206924
S1131E3E732000253034642F253032752F2530322F
S1131E4E7520253032753A253032753A2530327583
S1131E5E0048454C500D0A00277227203A2052653F
S1131E6E61642074696D6520726567697374657247
S1131E7E73206F66205254432D383536340D0A00C4
S1131E8E275227203A205265616420616C6C2072BF
S1131E9E6567697374657273206F66205254432D9F
S1131EAE383536340D0A00277727203A20577269C1
S1131EBE74652074696D65207265676973746572E3
S1131ECE73206F66205254432D383536340D0A0074
S1131EDE277427203A20526561642074696D652049
S1131EEE76616C7565206F6E2052414D0D0A002788
S1131EFE6827203A2068656C700D0A3E0054696D9F
S1131F0E652076616C7565206F6E2052414D206997
S1131F1E732000770D0A0057726974652074696D19
S1131F2E6520746F20525443206D6F64652E0D0A24
S1131F3E00496E7075742022595959592F4D4D2FE1
S1131F4E44442048483A4D4D3A53532220616E641E
S1131F5E20507265737320456E7465720D0A3E00CF
S1131F6E0D0A596F757220696E707574206973202D
S1131F7E3A0D0A004F4B20746F2070726F636565C3
S1131F8E643F2028792F6E290D0A3E00596F757211
S1131F9E20696E7075742065786365656420746855
S1131FAE65206C696D69742E20577269746520639F
S1131FBE616E63656C6C65642E0D0A3E000D0A42FB
S1131FCE6567696E2077726974696E672E2E2E0DA1
S1131FDE0A000D0A456E640D0A3E000D0A57726919
S1131FEE74652063616E63656C6C65642E0D0A3EC8
S1131FFE000D0A42616420696E7075742E2057724A
S113200E6974652063616E63656C6C65642E0D0A7C
S105201E3E007E
S9030000FC
